{
  "_format": "hh-sol-artifact-1",
  "contractName": "RockPaperScissors",
  "sourceName": "contracts/RockPaperScissors.sol",
  "abi": [
    {
      "inputs": [
        {
          "internalType": "contract IERC20",
          "name": "_token",
          "type": "address"
        }
      ],
      "stateMutability": "nonpayable",
      "type": "constructor"
    },
    {
      "anonymous": false,
      "inputs": [
        {
          "indexed": false,
          "internalType": "uint256",
          "name": "gameId",
          "type": "uint256"
        },
        {
          "indexed": false,
          "internalType": "address",
          "name": "player1",
          "type": "address"
        }
      ],
      "name": "GameCreated",
      "type": "event"
    },
    {
      "anonymous": false,
      "inputs": [
        {
          "indexed": false,
          "internalType": "uint256",
          "name": "gameId",
          "type": "uint256"
        },
        {
          "indexed": false,
          "internalType": "enum RockPaperScissors.GameResult",
          "name": "result",
          "type": "uint8"
        }
      ],
      "name": "GameOutcome",
      "type": "event"
    },
    {
      "anonymous": false,
      "inputs": [
        {
          "indexed": true,
          "internalType": "address",
          "name": "previousOwner",
          "type": "address"
        },
        {
          "indexed": true,
          "internalType": "address",
          "name": "newOwner",
          "type": "address"
        }
      ],
      "name": "OwnershipTransferStarted",
      "type": "event"
    },
    {
      "anonymous": false,
      "inputs": [
        {
          "indexed": true,
          "internalType": "address",
          "name": "previousOwner",
          "type": "address"
        },
        {
          "indexed": true,
          "internalType": "address",
          "name": "newOwner",
          "type": "address"
        }
      ],
      "name": "OwnershipTransferred",
      "type": "event"
    },
    {
      "inputs": [],
      "name": "acceptOwnership",
      "outputs": [],
      "stateMutability": "nonpayable",
      "type": "function"
    },
    {
      "inputs": [
        {
          "internalType": "enum RockPaperScissors.Choice",
          "name": "choice1",
          "type": "uint8"
        }
      ],
      "name": "createGame",
      "outputs": [
        {
          "internalType": "uint256",
          "name": "",
          "type": "uint256"
        }
      ],
      "stateMutability": "nonpayable",
      "type": "function"
    },
    {
      "inputs": [],
      "name": "gameIdCounter",
      "outputs": [
        {
          "internalType": "uint256",
          "name": "",
          "type": "uint256"
        }
      ],
      "stateMutability": "view",
      "type": "function"
    },
    {
      "inputs": [
        {
          "internalType": "uint256",
          "name": "",
          "type": "uint256"
        }
      ],
      "name": "games",
      "outputs": [
        {
          "internalType": "address",
          "name": "player1",
          "type": "address"
        },
        {
          "internalType": "enum RockPaperScissors.Choice",
          "name": "choice1",
          "type": "uint8"
        },
        {
          "internalType": "address",
          "name": "player2",
          "type": "address"
        },
        {
          "internalType": "enum RockPaperScissors.Choice",
          "name": "choice2",
          "type": "uint8"
        },
        {
          "internalType": "bool",
          "name": "isActive",
          "type": "bool"
        }
      ],
      "stateMutability": "view",
      "type": "function"
    },
    {
      "inputs": [
        {
          "internalType": "uint256",
          "name": "gameId",
          "type": "uint256"
        },
        {
          "internalType": "enum RockPaperScissors.Choice",
          "name": "choice2",
          "type": "uint8"
        }
      ],
      "name": "joinGame",
      "outputs": [],
      "stateMutability": "nonpayable",
      "type": "function"
    },
    {
      "inputs": [],
      "name": "owner",
      "outputs": [
        {
          "internalType": "address",
          "name": "",
          "type": "address"
        }
      ],
      "stateMutability": "view",
      "type": "function"
    },
    {
      "inputs": [],
      "name": "pendingOwner",
      "outputs": [
        {
          "internalType": "address",
          "name": "",
          "type": "address"
        }
      ],
      "stateMutability": "view",
      "type": "function"
    },
    {
      "inputs": [],
      "name": "renounceOwnership",
      "outputs": [],
      "stateMutability": "nonpayable",
      "type": "function"
    },
    {
      "inputs": [],
      "name": "token",
      "outputs": [
        {
          "internalType": "contract IERC20",
          "name": "",
          "type": "address"
        }
      ],
      "stateMutability": "view",
      "type": "function"
    },
    {
      "inputs": [
        {
          "internalType": "address",
          "name": "newOwner",
          "type": "address"
        }
      ],
      "name": "transferOwnership",
      "outputs": [],
      "stateMutability": "nonpayable",
      "type": "function"
    }
  ],
  "bytecode": "0x60806040523480156200001157600080fd5b5060405162001be138038062001be1833981810160405281019062000037919062000222565b620000576200004b6200009f60201b60201c565b620000a760201b60201c565b80600260006101000a81548173ffffffffffffffffffffffffffffffffffffffff021916908373ffffffffffffffffffffffffffffffffffffffff1602179055505062000254565b600033905090565b600160006101000a81549073ffffffffffffffffffffffffffffffffffffffff0219169055620000dd81620000e060201b60201c565b50565b60008060009054906101000a900473ffffffffffffffffffffffffffffffffffffffff169050816000806101000a81548173ffffffffffffffffffffffffffffffffffffffff021916908373ffffffffffffffffffffffffffffffffffffffff1602179055508173ffffffffffffffffffffffffffffffffffffffff168173ffffffffffffffffffffffffffffffffffffffff167f8be0079c531659141344cd1fd0a4f28419497f9722a3daafe3b4186f6b6457e060405160405180910390a35050565b600080fd5b600073ffffffffffffffffffffffffffffffffffffffff82169050919050565b6000620001d682620001a9565b9050919050565b6000620001ea82620001c9565b9050919050565b620001fc81620001dd565b81146200020857600080fd5b50565b6000815190506200021c81620001f1565b92915050565b6000602082840312156200023b576200023a620001a4565b5b60006200024b848285016200020b565b91505092915050565b61197d80620002646000396000f3fe608060405234801561001057600080fd5b506004361061009e5760003560e01c8063ca6649c511610066578063ca6649c514610127578063e30c397814610143578063e580f6ab14610161578063f2fde38b14610191578063fc0c546a146101ad5761009e565b8063117a5b90146100a35780631bb412d6146100d7578063715018a6146100f557806379ba5097146100ff5780638da5cb5b14610109575b600080fd5b6100bd60048036038101906100b891906110d8565b6101cb565b6040516100ce9594939291906111d8565b60405180910390f35b6100df610268565b6040516100ec919061123a565b60405180910390f35b6100fd61026e565b005b610107610282565b005b61011161030f565b60405161011e9190611255565b60405180910390f35b610141600480360381019061013c9190611295565b610338565b005b61014b6105c6565b6040516101589190611255565b60405180910390f35b61017b600480360381019061017691906112d5565b6105f0565b604051610188919061123a565b60405180910390f35b6101ab60048036038101906101a6919061132e565b6107f1565b005b6101b561089e565b6040516101c291906113ba565b60405180910390f35b60036020528060005260406000206000915090508060000160009054906101000a900473ffffffffffffffffffffffffffffffffffffffff16908060000160149054906101000a900460ff16908060010160009054906101000a900473ffffffffffffffffffffffffffffffffffffffff16908060010160149054906101000a900460ff16908060010160159054906101000a900460ff16905085565b60045481565b6102766108c4565b6102806000610942565b565b600061028c610973565b90508073ffffffffffffffffffffffffffffffffffffffff166102ad6105c6565b73ffffffffffffffffffffffffffffffffffffffff1614610303576040517f08c379a00000000000000000000000000000000000000000000000000000000081526004016102fa90611458565b60405180910390fd5b61030c81610942565b50565b60008060009054906101000a900473ffffffffffffffffffffffffffffffffffffffff16905090565b600073ffffffffffffffffffffffffffffffffffffffff166003600084815260200190815260200160002060000160009054906101000a900473ffffffffffffffffffffffffffffffffffffffff1673ffffffffffffffffffffffffffffffffffffffff16036103dd576040517f08c379a00000000000000000000000000000000000000000000000000000000081526004016103d4906114c4565b60405180910390fd5b600073ffffffffffffffffffffffffffffffffffffffff166003600084815260200190815260200160002060010160009054906101000a900473ffffffffffffffffffffffffffffffffffffffff1673ffffffffffffffffffffffffffffffffffffffff1614610482576040517f08c379a000000000000000000000000000000000000000000000000000000000815260040161047990611530565b60405180910390fd5b6003600083815260200190815260200160002060000160009054906101000a900473ffffffffffffffffffffffffffffffffffffffff1673ffffffffffffffffffffffffffffffffffffffff163373ffffffffffffffffffffffffffffffffffffffff1603610526576040517f08c379a000000000000000000000000000000000000000000000000000000000815260040161051d9061159c565b60405180910390fd5b336003600084815260200190815260200160002060010160006101000a81548173ffffffffffffffffffffffffffffffffffffffff021916908373ffffffffffffffffffffffffffffffffffffffff160217905550806003600084815260200190815260200160002060010160146101000a81548160ff021916908360038111156105b4576105b3611146565b5b02179055506105c28261097b565b5050565b6000600160009054906101000a900473ffffffffffffffffffffffffffffffffffffffff16905090565b600060046000815480929190610605906115eb565b91905055506040518060a001604052803373ffffffffffffffffffffffffffffffffffffffff16815260200183600381111561064457610643611146565b5b8152602001600073ffffffffffffffffffffffffffffffffffffffff1681526020016000600381111561067a57610679611146565b5b81526020016001151581525060036000600454815260200190815260200160002060008201518160000160006101000a81548173ffffffffffffffffffffffffffffffffffffffff021916908373ffffffffffffffffffffffffffffffffffffffff16021790555060208201518160000160146101000a81548160ff0219169083600381111561070d5761070c611146565b5b021790555060408201518160010160006101000a81548173ffffffffffffffffffffffffffffffffffffffff021916908373ffffffffffffffffffffffffffffffffffffffff16021790555060608201518160010160146101000a81548160ff0219169083600381111561078457610783611146565b5b021790555060808201518160010160156101000a81548160ff0219169083151502179055509050507fc3e0f84839dc888c892a013d10c8f9d6dc05a21a879d0ce468ca558013e9121c600454336040516107df929190611633565b60405180910390a16004549050919050565b6107f96108c4565b80600160006101000a81548173ffffffffffffffffffffffffffffffffffffffff021916908373ffffffffffffffffffffffffffffffffffffffff1602179055508073ffffffffffffffffffffffffffffffffffffffff1661085961030f565b73ffffffffffffffffffffffffffffffffffffffff167f38d16b8cac22d99fc7c124b9cd0de2d3fa1faef420bfe791d8c362d765e2270060405160405180910390a350565b600260009054906101000a900473ffffffffffffffffffffffffffffffffffffffff1681565b6108cc610973565b73ffffffffffffffffffffffffffffffffffffffff166108ea61030f565b73ffffffffffffffffffffffffffffffffffffffff1614610940576040517f08c379a0000000000000000000000000000000000000000000000000000000008152600401610937906116a8565b60405180910390fd5b565b600160006101000a81549073ffffffffffffffffffffffffffffffffffffffff021916905561097081610fd9565b50565b600033905090565b60006003600083815260200190815260200160002090508060010160159054906101000a900460ff166109e3576040517f08c379a00000000000000000000000000000000000000000000000000000000081526004016109da90611714565b60405180910390fd5b60008160000160149054906101000a900460ff16905060008260010160149054906101000a900460ff169050600060016003811115610a2557610a24611146565b5b836003811115610a3857610a37611146565b5b148015610a685750600380811115610a5357610a52611146565b5b826003811115610a6657610a65611146565b5b145b80610ac7575060026003811115610a8257610a81611146565b5b836003811115610a9557610a94611146565b5b148015610ac6575060016003811115610ab157610ab0611146565b5b826003811115610ac457610ac3611146565b5b145b5b80610b255750600380811115610ae057610adf611146565b5b836003811115610af357610af2611146565b5b148015610b24575060026003811115610b0f57610b0e611146565b5b826003811115610b2257610b21611146565b5b145b5b15610b335760019050610b6d565b816003811115610b4657610b45611146565b5b836003811115610b5957610b58611146565b5b03610b675760039050610b6c565b600290505b5b60008060016003811115610b8457610b83611146565b5b836003811115610b9757610b96611146565b5b03610bef578560000160009054906101000a900473ffffffffffffffffffffffffffffffffffffffff1691508560010160009054906101000a900473ffffffffffffffffffffffffffffffffffffffff169050610c6b565b60026003811115610c0357610c02611146565b5b836003811115610c1657610c15611146565b5b03610c6a578560010160009054906101000a900473ffffffffffffffffffffffffffffffffffffffff1691508560000160009054906101000a900473ffffffffffffffffffffffffffffffffffffffff1690505b5b600073ffffffffffffffffffffffffffffffffffffffff168273ffffffffffffffffffffffffffffffffffffffff1614610eda57678ac7230489e80000600260009054906101000a900473ffffffffffffffffffffffffffffffffffffffff1673ffffffffffffffffffffffffffffffffffffffff166370a08231836040518263ffffffff1660e01b8152600401610d039190611255565b602060405180830381865afa158015610d20573d6000803e3d6000fd5b505050506040513d601f19601f82011682018060405250810190610d449190611749565b1015610d85576040517f08c379a0000000000000000000000000000000000000000000000000000000008152600401610d7c906117c2565b60405180910390fd5b600260009054906101000a900473ffffffffffffffffffffffffffffffffffffffff1673ffffffffffffffffffffffffffffffffffffffff1663a9059cbb83678ac7230489e800006040518363ffffffff1660e01b8152600401610dea92919061181d565b6020604051808303816000875af1158015610e09573d6000803e3d6000fd5b505050506040513d601f19601f82011682018060405250810190610e2d9190611872565b50600260009054906101000a900473ffffffffffffffffffffffffffffffffffffffff1673ffffffffffffffffffffffffffffffffffffffff166323b872dd8230678ac7230489e800006040518463ffffffff1660e01b8152600401610e959392919061189f565b6020604051808303816000875af1158015610eb4573d6000803e3d6000fd5b505050506040513d601f19601f82011682018060405250810190610ed89190611872565b505b7fc21e35d02d15ddbaf3de6008e2f794f6eb6c9f0e6b06574732f15320afd4c1c48784604051610f0b92919061191e565b60405180910390a160008660010160156101000a81548160ff02191690831515021790555060036000888152602001908152602001600020600080820160006101000a81549073ffffffffffffffffffffffffffffffffffffffff02191690556000820160146101000a81549060ff02191690556001820160006101000a81549073ffffffffffffffffffffffffffffffffffffffff02191690556001820160146101000a81549060ff02191690556001820160156101000a81549060ff0219169055505050505050505050565b60008060009054906101000a900473ffffffffffffffffffffffffffffffffffffffff169050816000806101000a81548173ffffffffffffffffffffffffffffffffffffffff021916908373ffffffffffffffffffffffffffffffffffffffff1602179055508173ffffffffffffffffffffffffffffffffffffffff168173ffffffffffffffffffffffffffffffffffffffff167f8be0079c531659141344cd1fd0a4f28419497f9722a3daafe3b4186f6b6457e060405160405180910390a35050565b600080fd5b6000819050919050565b6110b5816110a2565b81146110c057600080fd5b50565b6000813590506110d2816110ac565b92915050565b6000602082840312156110ee576110ed61109d565b5b60006110fc848285016110c3565b91505092915050565b600073ffffffffffffffffffffffffffffffffffffffff82169050919050565b600061113082611105565b9050919050565b61114081611125565b82525050565b7f4e487b7100000000000000000000000000000000000000000000000000000000600052602160045260246000fd5b6004811061118657611185611146565b5b50565b600081905061119782611175565b919050565b60006111a782611189565b9050919050565b6111b78161119c565b82525050565b60008115159050919050565b6111d2816111bd565b82525050565b600060a0820190506111ed6000830188611137565b6111fa60208301876111ae565b6112076040830186611137565b61121460608301856111ae565b61122160808301846111c9565b9695505050505050565b611234816110a2565b82525050565b600060208201905061124f600083018461122b565b92915050565b600060208201905061126a6000830184611137565b92915050565b6004811061127d57600080fd5b50565b60008135905061128f81611270565b92915050565b600080604083850312156112ac576112ab61109d565b5b60006112ba858286016110c3565b92505060206112cb85828601611280565b9150509250929050565b6000602082840312156112eb576112ea61109d565b5b60006112f984828501611280565b91505092915050565b61130b81611125565b811461131657600080fd5b50565b60008135905061132881611302565b92915050565b6000602082840312156113445761134361109d565b5b600061135284828501611319565b91505092915050565b6000819050919050565b600061138061137b61137684611105565b61135b565b611105565b9050919050565b600061139282611365565b9050919050565b60006113a482611387565b9050919050565b6113b481611399565b82525050565b60006020820190506113cf60008301846113ab565b92915050565b600082825260208201905092915050565b7f4f776e61626c6532537465703a2063616c6c6572206973206e6f74207468652060008201527f6e6577206f776e65720000000000000000000000000000000000000000000000602082015250565b60006114426029836113d5565b915061144d826113e6565b604082019050919050565b6000602082019050818103600083015261147181611435565b9050919050565b7f47616d6520646f6573206e6f7420657869737400000000000000000000000000600082015250565b60006114ae6013836113d5565b91506114b982611478565b602082019050919050565b600060208201905081810360008301526114dd816114a1565b9050919050565b7f47616d6520616c7265616479206a6f696e656400000000000000000000000000600082015250565b600061151a6013836113d5565b9150611525826114e4565b602082019050919050565b600060208201905081810360008301526115498161150d565b9050919050565b7f43616e6e6f74206a6f696e20796f7572206f776e2067616d6500000000000000600082015250565b60006115866019836113d5565b915061159182611550565b602082019050919050565b600060208201905081810360008301526115b581611579565b9050919050565b7f4e487b7100000000000000000000000000000000000000000000000000000000600052601160045260246000fd5b60006115f6826110a2565b91507fffffffffffffffffffffffffffffffffffffffffffffffffffffffffffffffff8203611628576116276115bc565b5b600182019050919050565b6000604082019050611648600083018561122b565b6116556020830184611137565b9392505050565b7f4f776e61626c653a2063616c6c6572206973206e6f7420746865206f776e6572600082015250565b60006116926020836113d5565b915061169d8261165c565b602082019050919050565b600060208201905081810360008301526116c181611685565b9050919050565b7f47616d65206973206e6f74206163746976650000000000000000000000000000600082015250565b60006116fe6012836113d5565b9150611709826116c8565b602082019050919050565b6000602082019050818103600083015261172d816116f1565b9050919050565b600081519050611743816110ac565b92915050565b60006020828403121561175f5761175e61109d565b5b600061176d84828501611734565b91505092915050565b7f4c6f7365722068617320696e73756666696369656e742062616c616e63650000600082015250565b60006117ac601e836113d5565b91506117b782611776565b602082019050919050565b600060208201905081810360008301526117db8161179f565b9050919050565b6000819050919050565b60006118076118026117fd846117e2565b61135b565b6110a2565b9050919050565b611817816117ec565b82525050565b60006040820190506118326000830185611137565b61183f602083018461180e565b9392505050565b61184f816111bd565b811461185a57600080fd5b50565b60008151905061186c81611846565b92915050565b6000602082840312156118885761188761109d565b5b60006118968482850161185d565b91505092915050565b60006060820190506118b46000830186611137565b6118c16020830185611137565b6118ce604083018461180e565b949350505050565b600481106118e7576118e6611146565b5b50565b60008190506118f8826118d6565b919050565b6000611908826118ea565b9050919050565b611918816118fd565b82525050565b6000604082019050611933600083018561122b565b611940602083018461190f565b939250505056fea264697066735822122085e03aebb9e4fbc82a5a67e659a357c6819121c1f8e277a60746d29ebbafd30764736f6c63430008140033",
  "linkReferences": {},
  "deployedLinkReferences": {}
}